{
  "_format": "hh-sol-artifact-1",
  "contractName": "EthRewardContract",
  "sourceName": "contracts/EthRewardContract.sol",
  "abi": [
    {
      "inputs": [
        {
          "internalType": "uint64",
          "name": "subscriptionId",
          "type": "uint64"
        }
      ],
      "stateMutability": "nonpayable",
      "type": "constructor"
    },
    {
      "inputs": [
        {
          "internalType": "address",
          "name": "have",
          "type": "address"
        },
        {
          "internalType": "address",
          "name": "want",
          "type": "address"
        }
      ],
      "name": "OnlyCoordinatorCanFulfill",
      "type": "error"
    },
    {
      "anonymous": false,
      "inputs": [
        {
          "indexed": false,
          "internalType": "uint256",
          "name": "amount",
          "type": "uint256"
        }
      ],
      "name": "FundsDeposited",
      "type": "event"
    },
    {
      "anonymous": false,
      "inputs": [
        {
          "indexed": true,
          "internalType": "address",
          "name": "buyer",
          "type": "address"
        },
        {
          "indexed": false,
          "internalType": "uint256",
          "name": "amount",
          "type": "uint256"
        },
        {
          "indexed": false,
          "internalType": "bool",
          "name": "won",
          "type": "bool"
        }
      ],
      "name": "PurchaseReward",
      "type": "event"
    },
    {
      "anonymous": false,
      "inputs": [
        {
          "indexed": true,
          "internalType": "address",
          "name": "winner",
          "type": "address"
        },
        {
          "indexed": false,
          "internalType": "uint256",
          "name": "amount",
          "type": "uint256"
        }
      ],
      "name": "RewardClaimed",
      "type": "event"
    },
    {
      "inputs": [],
      "name": "MAX_REWARD",
      "outputs": [
        {
          "internalType": "uint256",
          "name": "",
          "type": "uint256"
        }
      ],
      "stateMutability": "view",
      "type": "function"
    },
    {
      "inputs": [],
      "name": "MIN_REWARD",
      "outputs": [
        {
          "internalType": "uint256",
          "name": "",
          "type": "uint256"
        }
      ],
      "stateMutability": "view",
      "type": "function"
    },
    {
      "inputs": [],
      "name": "REWARD_CHANCE",
      "outputs": [
        {
          "internalType": "uint256",
          "name": "",
          "type": "uint256"
        }
      ],
      "stateMutability": "view",
      "type": "function"
    },
    {
      "inputs": [],
      "name": "claimReward",
      "outputs": [],
      "stateMutability": "nonpayable",
      "type": "function"
    },
    {
      "inputs": [],
      "name": "depositRewards",
      "outputs": [],
      "stateMutability": "payable",
      "type": "function"
    },
    {
      "inputs": [],
      "name": "getContractBalance",
      "outputs": [
        {
          "internalType": "uint256",
          "name": "",
          "type": "uint256"
        }
      ],
      "stateMutability": "view",
      "type": "function"
    },
    {
      "inputs": [
        {
          "internalType": "address",
          "name": "user",
          "type": "address"
        }
      ],
      "name": "getPendingReward",
      "outputs": [
        {
          "internalType": "uint256",
          "name": "",
          "type": "uint256"
        }
      ],
      "stateMutability": "view",
      "type": "function"
    },
    {
      "inputs": [],
      "name": "getRewardPool",
      "outputs": [
        {
          "internalType": "uint256",
          "name": "",
          "type": "uint256"
        }
      ],
      "stateMutability": "view",
      "type": "function"
    },
    {
      "inputs": [],
      "name": "owner",
      "outputs": [
        {
          "internalType": "address",
          "name": "",
          "type": "address"
        }
      ],
      "stateMutability": "view",
      "type": "function"
    },
    {
      "inputs": [
        {
          "internalType": "address",
          "name": "",
          "type": "address"
        }
      ],
      "name": "pendingRewards",
      "outputs": [
        {
          "internalType": "uint256",
          "name": "",
          "type": "uint256"
        }
      ],
      "stateMutability": "view",
      "type": "function"
    },
    {
      "inputs": [
        {
          "internalType": "address",
          "name": "buyer",
          "type": "address"
        },
        {
          "internalType": "uint256",
          "name": "purchaseAmount",
          "type": "uint256"
        }
      ],
      "name": "processPurchaseReward",
      "outputs": [
        {
          "internalType": "uint256",
          "name": "requestId",
          "type": "uint256"
        }
      ],
      "stateMutability": "nonpayable",
      "type": "function"
    },
    {
      "inputs": [
        {
          "internalType": "uint256",
          "name": "requestId",
          "type": "uint256"
        },
        {
          "internalType": "uint256[]",
          "name": "randomWords",
          "type": "uint256[]"
        }
      ],
      "name": "rawFulfillRandomWords",
      "outputs": [],
      "stateMutability": "nonpayable",
      "type": "function"
    },
    {
      "inputs": [
        {
          "internalType": "uint256",
          "name": "",
          "type": "uint256"
        }
      ],
      "name": "requestIdToBuyer",
      "outputs": [
        {
          "internalType": "address",
          "name": "",
          "type": "address"
        }
      ],
      "stateMutability": "view",
      "type": "function"
    },
    {
      "inputs": [
        {
          "internalType": "uint256",
          "name": "",
          "type": "uint256"
        }
      ],
      "name": "requestIdToPurchaseAmount",
      "outputs": [
        {
          "internalType": "uint256",
          "name": "",
          "type": "uint256"
        }
      ],
      "stateMutability": "view",
      "type": "function"
    },
    {
      "inputs": [],
      "name": "rewardPool",
      "outputs": [
        {
          "internalType": "uint256",
          "name": "",
          "type": "uint256"
        }
      ],
      "stateMutability": "view",
      "type": "function"
    },
    {
      "inputs": [],
      "name": "totalRewards",
      "outputs": [
        {
          "internalType": "uint256",
          "name": "",
          "type": "uint256"
        }
      ],
      "stateMutability": "view",
      "type": "function"
    },
    {
      "inputs": [
        {
          "internalType": "uint64",
          "name": "newSubscriptionId",
          "type": "uint64"
        }
      ],
      "name": "updateSubscriptionId",
      "outputs": [],
      "stateMutability": "nonpayable",
      "type": "function"
    },
    {
      "inputs": [],
      "name": "withdrawAll",
      "outputs": [],
      "stateMutability": "nonpayable",
      "type": "function"
    },
    {
      "stateMutability": "payable",
      "type": "receive"
    }
  ],
  "bytecode": "0x60a06040527f474e34a077df58807dbe9c96d3c009b23b3c6d0cce433e59bbf5b34f823bc56c60001b600155620186a0600260006101000a81548163ffffffff021916908363ffffffff1602179055506003600260046101000a81548161ffff021916908361ffff1602179055506001600260066101000a81548163ffffffff021916908363ffffffff1602179055503480156200009c57600080fd5b5060405162001d7838038062001d788339818101604052810190620000c291906200021b565b738103b0a8a00be2ddc778e6e7eaa21791cd3646258073ffffffffffffffffffffffffffffffffffffffff1660808173ffffffffffffffffffffffffffffffffffffffff168152505050738103b0a8a00be2ddc778e6e7eaa21791cd3646256000806101000a81548173ffffffffffffffffffffffffffffffffffffffff021916908373ffffffffffffffffffffffffffffffffffffffff160217905550336002600a6101000a81548173ffffffffffffffffffffffffffffffffffffffff021916908373ffffffffffffffffffffffffffffffffffffffff16021790555080600060146101000a81548167ffffffffffffffff021916908367ffffffffffffffff160217905550506200024d565b600080fd5b600067ffffffffffffffff82169050919050565b620001f581620001d6565b81146200020157600080fd5b50565b6000815190506200021581620001ea565b92915050565b600060208284031215620002345762000233620001d1565b5b6000620002448482850162000204565b91505092915050565b608051611b08620002706000396000818161063c01526106900152611b086000f3fe60806040526004361061010d5760003560e01c80634df9d6ba11610095578063777e6c2611610064578063777e6c26146103a9578063795236ac146103e6578063853828b6146104235780638da5cb5b1461043a578063b88a802f1461046557610164565b80634df9d6ba146102d957806352cc41c91461031657806366666aa9146103535780636f9fb98a1461037e57610164565b8063152111f7116100dc578063152111f7146102135780631b8b13a71461021d5780631fe543e31461024857806331d7a2621461027157806348ea0c03146102ae57610164565b80630acff9e4146101695780630e1505e0146101945780630e15561a146101bf57806314b1dd1b146101ea57610164565b36610164573460046000828254610124919061109d565b925050819055507f7cb5d45c1071f219bd2da1ea101758715bd52f23f2a707f2d9a0387dea18d9063460405161015a91906110e0565b60405180910390a1005b600080fd5b34801561017557600080fd5b5061017e61047c565b60405161018b91906110e0565b60405180910390f35b3480156101a057600080fd5b506101a9610481565b6040516101b691906110e0565b60405180910390f35b3480156101cb57600080fd5b506101d461048c565b6040516101e191906110e0565b60405180910390f35b3480156101f657600080fd5b50610211600480360381019061020c919061114f565b610492565b005b61021b61054e565b005b34801561022957600080fd5b50610232610630565b60405161023f91906110e0565b60405180910390f35b34801561025457600080fd5b5061026f600480360381019061026a9190611301565b61063a565b005b34801561027d57600080fd5b50610298600480360381019061029391906113bb565b6106fa565b6040516102a591906110e0565b60405180910390f35b3480156102ba57600080fd5b506102c3610712565b6040516102d091906110e0565b60405180910390f35b3480156102e557600080fd5b5061030060048036038101906102fb91906113bb565b61071d565b60405161030d91906110e0565b60405180910390f35b34801561032257600080fd5b5061033d600480360381019061033891906113e8565b610766565b60405161034a91906110e0565b60405180910390f35b34801561035f57600080fd5b5061036861077e565b60405161037591906110e0565b60405180910390f35b34801561038a57600080fd5b50610393610784565b6040516103a091906110e0565b60405180910390f35b3480156103b557600080fd5b506103d060048036038101906103cb91906113e8565b61078c565b6040516103dd9190611424565b60405180910390f35b3480156103f257600080fd5b5061040d6004803603810190610408919061143f565b6107bf565b60405161041a91906110e0565b60405180910390f35b34801561042f57600080fd5b506104386109dd565b005b34801561044657600080fd5b5061044f610b4c565b60405161045c9190611424565b60405180910390f35b34801561047157600080fd5b5061047a610b72565b005b601e81565b662386f26fc1000081565b60035481565b6002600a9054906101000a900473ffffffffffffffffffffffffffffffffffffffff1673ffffffffffffffffffffffffffffffffffffffff163373ffffffffffffffffffffffffffffffffffffffff1614610522576040517f08c379a0000000000000000000000000000000000000000000000000000000008152600401610519906114dc565b60405180910390fd5b80600060146101000a81548167ffffffffffffffff021916908367ffffffffffffffff16021790555050565b6002600a9054906101000a900473ffffffffffffffffffffffffffffffffffffffff1673ffffffffffffffffffffffffffffffffffffffff163373ffffffffffffffffffffffffffffffffffffffff16146105de576040517f08c379a00000000000000000000000000000000000000000000000000000000081526004016105d5906114dc565b60405180910390fd5b34600460008282546105f0919061109d565b925050819055507f7cb5d45c1071f219bd2da1ea101758715bd52f23f2a707f2d9a0387dea18d9063460405161062691906110e0565b60405180910390a1565b6000600454905090565b7f000000000000000000000000000000000000000000000000000000000000000073ffffffffffffffffffffffffffffffffffffffff163373ffffffffffffffffffffffffffffffffffffffff16146106ec57337f00000000000000000000000000000000000000000000000000000000000000006040517f1cf993f40000000000000000000000000000000000000000000000000000000081526004016106e39291906114fc565b60405180910390fd5b6106f68282610d7f565b5050565b60076020528060005260406000206000915090505481565b66038d7ea4c6800081565b6000600760008373ffffffffffffffffffffffffffffffffffffffff1673ffffffffffffffffffffffffffffffffffffffff168152602001908152602001600020549050919050565b60066020528060005260406000206000915090505481565b60045481565b600047905090565b60056020528060005260406000206000915054906101000a900473ffffffffffffffffffffffffffffffffffffffff1681565b600066038d7ea4c680006004541161080c576040517f08c379a000000000000000000000000000000000000000000000000000000000815260040161080390611571565b60405180910390fd5b600073ffffffffffffffffffffffffffffffffffffffff168373ffffffffffffffffffffffffffffffffffffffff160361087b576040517f08c379a0000000000000000000000000000000000000000000000000000000008152600401610872906115dd565b60405180910390fd5b60008054906101000a900473ffffffffffffffffffffffffffffffffffffffff1673ffffffffffffffffffffffffffffffffffffffff16635d3b1d30600154600060149054906101000a900467ffffffffffffffff16600260049054906101000a900461ffff16600260009054906101000a900463ffffffff16600260069054906101000a900463ffffffff166040518663ffffffff1660e01b8152600401610928959493929190611661565b6020604051808303816000875af1158015610947573d6000803e3d6000fd5b505050506040513d601f19601f8201168201806040525081019061096b91906116c9565b9050826005600083815260200190815260200160002060006101000a81548173ffffffffffffffffffffffffffffffffffffffff021916908373ffffffffffffffffffffffffffffffffffffffff16021790555081600660008381526020019081526020016000208190555092915050565b6002600a9054906101000a900473ffffffffffffffffffffffffffffffffffffffff1673ffffffffffffffffffffffffffffffffffffffff163373ffffffffffffffffffffffffffffffffffffffff1614610a6d576040517f08c379a0000000000000000000000000000000000000000000000000000000008152600401610a64906114dc565b60405180910390fd5b6000479050600060048190555060006002600a9054906101000a900473ffffffffffffffffffffffffffffffffffffffff1673ffffffffffffffffffffffffffffffffffffffff1682604051610ac290611727565b60006040518083038185875af1925050503d8060008114610aff576040519150601f19603f3d011682016040523d82523d6000602084013e610b04565b606091505b5050905080610b48576040517f08c379a0000000000000000000000000000000000000000000000000000000008152600401610b3f90611788565b60405180910390fd5b5050565b6002600a9054906101000a900473ffffffffffffffffffffffffffffffffffffffff1681565b6000600760003373ffffffffffffffffffffffffffffffffffffffff1673ffffffffffffffffffffffffffffffffffffffff16815260200190815260200160002054905060008111610bf9576040517f08c379a0000000000000000000000000000000000000000000000000000000008152600401610bf0906117f4565b60405180910390fd5b80471015610c3c576040517f08c379a0000000000000000000000000000000000000000000000000000000008152600401610c3390611860565b60405180910390fd5b6000600760003373ffffffffffffffffffffffffffffffffffffffff1673ffffffffffffffffffffffffffffffffffffffff1681526020019081526020016000208190555060003373ffffffffffffffffffffffffffffffffffffffff1682604051610ca790611727565b60006040518083038185875af1925050503d8060008114610ce4576040519150601f19603f3d011682016040523d82523d6000602084013e610ce9565b606091505b5050905080610d2d576040517f08c379a0000000000000000000000000000000000000000000000000000000008152600401610d24906118cc565b60405180910390fd5b3373ffffffffffffffffffffffffffffffffffffffff167f106f923f993c2149d49b4255ff723acafa1f2d94393f561d3eda32ae348f724183604051610d7391906110e0565b60405180910390a25050565b60006005600084815260200190815260200160002060009054906101000a900473ffffffffffffffffffffffffffffffffffffffff169050600060066000858152602001908152602001600020549050600073ffffffffffffffffffffffffffffffffffffffff168273ffffffffffffffffffffffffffffffffffffffff1603610e3e576040517f08c379a0000000000000000000000000000000000000000000000000000000008152600401610e3590611938565b60405180910390fd5b6000606484600081518110610e5657610e55611958565b5b6020026020010151610e6891906119b6565b90506000601e82109050808015610e88575066038d7ea4c6800060045410155b15610fbf5760006001600587600081518110610ea757610ea6611958565b5b6020026020010151610eb991906119b6565b610ec3919061109d565b90506000655af3107a4000606486610edb91906119e7565b610ee59190611a18565b66038d7ea4c68000610ef7919061109d565b905060008282610f079190611a18565b9050662386f26fc10000811115610f2357662386f26fc1000090505b600454811115610f335760045490505b80600760008973ffffffffffffffffffffffffffffffffffffffff1673ffffffffffffffffffffffffffffffffffffffff1681526020019081526020016000206000828254610f82919061109d565b925050819055508060046000828254610f9b9190611a5a565b925050819055508060036000828254610fb4919061109d565b925050819055505050505b8373ffffffffffffffffffffffffffffffffffffffff167fae4af1d605c1be5fc32e82c5b619463d0971fc95cb23b65bbb4dddcae93d9f5b8483604051611007929190611aa9565b60405180910390a26005600087815260200190815260200160002060006101000a81549073ffffffffffffffffffffffffffffffffffffffff02191690556006600087815260200190815260200160002060009055505050505050565b6000819050919050565b7f4e487b7100000000000000000000000000000000000000000000000000000000600052601160045260246000fd5b60006110a882611064565b91506110b383611064565b92508282019050808211156110cb576110ca61106e565b5b92915050565b6110da81611064565b82525050565b60006020820190506110f560008301846110d1565b92915050565b6000604051905090565b600080fd5b600080fd5b600067ffffffffffffffff82169050919050565b61112c8161110f565b811461113757600080fd5b50565b60008135905061114981611123565b92915050565b60006020828403121561116557611164611105565b5b60006111738482850161113a565b91505092915050565b61118581611064565b811461119057600080fd5b50565b6000813590506111a28161117c565b92915050565b600080fd5b6000601f19601f8301169050919050565b7f4e487b7100000000000000000000000000000000000000000000000000000000600052604160045260246000fd5b6111f6826111ad565b810181811067ffffffffffffffff82111715611215576112146111be565b5b80604052505050565b60006112286110fb565b905061123482826111ed565b919050565b600067ffffffffffffffff821115611254576112536111be565b5b602082029050602081019050919050565b600080fd5b600061127d61127884611239565b61121e565b905080838252602082019050602084028301858111156112a05761129f611265565b5b835b818110156112c957806112b58882611193565b8452602084019350506020810190506112a2565b5050509392505050565b600082601f8301126112e8576112e76111a8565b5b81356112f884826020860161126a565b91505092915050565b6000806040838503121561131857611317611105565b5b600061132685828601611193565b925050602083013567ffffffffffffffff8111156113475761134661110a565b5b611353858286016112d3565b9150509250929050565b600073ffffffffffffffffffffffffffffffffffffffff82169050919050565b60006113888261135d565b9050919050565b6113988161137d565b81146113a357600080fd5b50565b6000813590506113b58161138f565b92915050565b6000602082840312156113d1576113d0611105565b5b60006113df848285016113a6565b91505092915050565b6000602082840312156113fe576113fd611105565b5b600061140c84828501611193565b91505092915050565b61141e8161137d565b82525050565b60006020820190506114396000830184611415565b92915050565b6000806040838503121561145657611455611105565b5b6000611464858286016113a6565b925050602061147585828601611193565b9150509250929050565b600082825260208201905092915050565b7f4e6f74206f776e65720000000000000000000000000000000000000000000000600082015250565b60006114c660098361147f565b91506114d182611490565b602082019050919050565b600060208201905081810360008301526114f5816114b9565b9050919050565b60006040820190506115116000830185611415565b61151e6020830184611415565b9392505050565b7f496e73756666696369656e742072657761726420706f6f6c0000000000000000600082015250565b600061155b60188361147f565b915061156682611525565b602082019050919050565b6000602082019050818103600083015261158a8161154e565b9050919050565b7f496e76616c696420627579657220616464726573730000000000000000000000600082015250565b60006115c760158361147f565b91506115d282611591565b602082019050919050565b600060208201905081810360008301526115f6816115ba565b9050919050565b6000819050919050565b611610816115fd565b82525050565b61161f8161110f565b82525050565b600061ffff82169050919050565b61163c81611625565b82525050565b600063ffffffff82169050919050565b61165b81611642565b82525050565b600060a0820190506116766000830188611607565b6116836020830187611616565b6116906040830186611633565b61169d6060830185611652565b6116aa6080830184611652565b9695505050505050565b6000815190506116c38161117c565b92915050565b6000602082840312156116df576116de611105565b5b60006116ed848285016116b4565b91505092915050565b600081905092915050565b50565b60006117116000836116f6565b915061171c82611701565b600082019050919050565b600061173282611704565b9150819050919050565b7f5769746864726177616c206661696c6564000000000000000000000000000000600082015250565b600061177260118361147f565b915061177d8261173c565b602082019050919050565b600060208201905081810360008301526117a181611765565b9050919050565b7f4e6f207265776172647320746f20636c61696d00000000000000000000000000600082015250565b60006117de60138361147f565b91506117e9826117a8565b602082019050919050565b6000602082019050818103600083015261180d816117d1565b9050919050565b7f496e73756666696369656e7420636f6e74726163742062616c616e6365000000600082015250565b600061184a601d8361147f565b915061185582611814565b602082019050919050565b600060208201905081810360008301526118798161183d565b9050919050565b7f5472616e73666572206661696c65640000000000000000000000000000000000600082015250565b60006118b6600f8361147f565b91506118c182611880565b602082019050919050565b600060208201905081810360008301526118e5816118a9565b9050919050565b7f496e76616c696420726571756573740000000000000000000000000000000000600082015250565b6000611922600f8361147f565b915061192d826118ec565b602082019050919050565b6000602082019050818103600083015261195181611915565b9050919050565b7f4e487b7100000000000000000000000000000000000000000000000000000000600052603260045260246000fd5b7f4e487b7100000000000000000000000000000000000000000000000000000000600052601260045260246000fd5b60006119c182611064565b91506119cc83611064565b9250826119dc576119db611987565b5b828206905092915050565b60006119f282611064565b91506119fd83611064565b925082611a0d57611a0c611987565b5b828204905092915050565b6000611a2382611064565b9150611a2e83611064565b9250828202611a3c81611064565b91508282048414831517611a5357611a5261106e565b5b5092915050565b6000611a6582611064565b9150611a7083611064565b9250828203905081811115611a8857611a8761106e565b5b92915050565b60008115159050919050565b611aa381611a8e565b82525050565b6000604082019050611abe60008301856110d1565b611acb6020830184611a9a565b939250505056fea264697066735822122092a4ec6c1bf9481298c362a2c1b08c7876f134694ef2a38074fff03bc240aaa664736f6c63430008130033",
  "linkReferences": {},
  "deployedLinkReferences": {}
}